:040000008A11FD2F35
:100F0800080083160F088F3910388F00FF308312BE
:100F18000317950083160313061206138613071288
:100F280087120713871308008A1184278A118A11E8
:100F380085278A11F701F8010230F30077088A1132
:100F4800C1278A110330F30078088A11C1278A1152
:100F58000A30F70A7706031DB72F0A30F80AF70197
:100F680078060319F8012930F6009430F500F50BDE
:100F7800BB2FF60BBB2F0000A02FF4007308C92766
:100F88008A117408EE278A11DB2FF100F200C030B5
:100F9800F20EF20DF20DF2057216720883120313A7
:100FA80086000430F000F00BD72FDA2F08008312E8
:100FB800031306120430F000F00BE02FE32F831226
:100FC80003130608103886000430F000F00BEA2FEF
:100FD800ED2F0800F100F200F030F20EF205720871
:100FE8008312031387000430F000F00BF92FFC2F55
:080FF800080083018A11982F03
:02400E00F4F3C9
:00000001FF
